{
  "address": "0x1F9E4095C0817707633D94919625AF0E209EF402",
  "abi": [
    {
      "inputs": [
        {
          "internalType": "address",
          "name": "exampleExternalContractAddress",
          "type": "address"
        }
      ],
      "stateMutability": "nonpayable",
      "type": "constructor"
    },
    {
      "anonymous": false,
      "inputs": [
        {
          "indexed": false,
          "internalType": "address",
          "name": "_address",
          "type": "address"
        },
        {
          "indexed": false,
          "internalType": "uint256",
          "name": "_amount",
          "type": "uint256"
        }
      ],
      "name": "Stake",
      "type": "event"
    },
    {
      "inputs": [
        {
          "internalType": "address",
          "name": "",
          "type": "address"
        }
      ],
      "name": "balances",
      "outputs": [
        {
          "internalType": "uint256",
          "name": "",
          "type": "uint256"
        }
      ],
      "stateMutability": "view",
      "type": "function"
    },
    {
      "inputs": [],
      "name": "deadline",
      "outputs": [
        {
          "internalType": "uint256",
          "name": "",
          "type": "uint256"
        }
      ],
      "stateMutability": "view",
      "type": "function"
    },
    {
      "inputs": [],
      "name": "exampleExternalContract",
      "outputs": [
        {
          "internalType": "contract ExampleExternalContract",
          "name": "",
          "type": "address"
        }
      ],
      "stateMutability": "view",
      "type": "function"
    },
    {
      "inputs": [],
      "name": "execute",
      "outputs": [],
      "stateMutability": "payable",
      "type": "function"
    },
    {
      "inputs": [],
      "name": "stake",
      "outputs": [],
      "stateMutability": "payable",
      "type": "function"
    },
    {
      "inputs": [],
      "name": "threshold",
      "outputs": [
        {
          "internalType": "uint256",
          "name": "",
          "type": "uint256"
        }
      ],
      "stateMutability": "view",
      "type": "function"
    },
    {
      "inputs": [],
      "name": "timeLeft",
      "outputs": [
        {
          "internalType": "uint256",
          "name": "",
          "type": "uint256"
        }
      ],
      "stateMutability": "view",
      "type": "function"
    },
    {
      "inputs": [],
      "name": "withdraw",
      "outputs": [],
      "stateMutability": "payable",
      "type": "function"
    },
    {
      "stateMutability": "payable",
      "type": "receive"
    }
  ],
  "transactionHash": "0xfadc2b075115fd223bcc8a9ca0aec7f58dc1ae9e1ebfdde739836d5f0495842f",
  "args": [
    "0xDC4Ef8E010B2573F34f4E0Ae01E9c8A732f6Fe66"
  ],
  "numDeployments": 1,
  "solcInputHash": "190842e60ea634924deb1c45ecab494a",
  "bytecode": "0x608060405261000f42601e610090565b60015534801561001e57600080fd5b5060405161053438038061053483398101604081905261003d91610062565b600280546001600160a01b0319166001600160a01b03929092169190911790556100b4565b600060208284031215610073578081fd5b81516001600160a01b0381168114610089578182fd5b9392505050565b600082198211156100af57634e487b7160e01b81526011600452602481fd5b500190565b610471806100c36000396000f3fe60806040526004361061007f5760003560e01c80633ccfd60b1161004e5780633ccfd60b1461016d57806342cde4e81461017557806361461954146101915780639f75f2271461019957600080fd5b80631300a6d1146100f857806327e235e31461012057806329dcb0cf1461014d5780633a4b66f11461016357600080fd5b366100f357600034116100c55760405162461bcd60e51b81526020600482015260096024820152684e6f2042726f6b696560b81b60448201526064015b60405180910390fd5b6100cd6101d1565b33600090815260208190526040812080544792906100ec9084906103f6565b9091555050005b600080fd5b34801561010457600080fd5b5061010d610259565b6040519081526020015b60405180910390f35b34801561012c57600080fd5b5061010d61013b3660046103c8565b60006020819052908152604090205481565b34801561015957600080fd5b5061010d60015481565b61016b6101d1565b005b61016b61027e565b34801561018157600080fd5b5061010d670de0b6b3a764000081565b61016b6102f8565b3480156101a557600080fd5b506002546101b9906001600160a01b031681565b6040516001600160a01b039091168152602001610117565b6000341161020d5760405162461bcd60e51b81526020600482015260096024820152684e6f2042726f6b696560b81b60448201526064016100bc565b336000818152602081815260409182902034908190558251938452908301527febedb8b3c678666e7f36970bc8f57abf6d8fa2e828c0da91ea5b75bf68ed101a910160405180910390a1565b60006001544210156102785742600154610273919061040e565b905090565b50600090565b670de0b6b3a764000047106102c95760405162461bcd60e51b8152602060048201526011602482015270151a1c995cda1bdb19081b9bdd081b595d607a1b60448201526064016100bc565b60405133904780156108fc02916000818181858888f193505050501580156102f5573d6000803e3d6000fd5b50565b60015442116103495760405162461bcd60e51b815260206004820152601b60248201527f446561646c696e6520686173206e6f742070617373656420796574000000000060448201526064016100bc565b670de0b6b3a764000047106103c65733600090815260208190526040808220479055600254815163522e117760e01b815291516001600160a01b039091169263522e11779247926004808301939282900301818588803b1580156103ac57600080fd5b505af11580156103c0573d6000803e3d6000fd5b50505050505b565b6000602082840312156103d9578081fd5b81356001600160a01b03811681146103ef578182fd5b9392505050565b6000821982111561040957610409610425565b500190565b60008282101561042057610420610425565b500390565b634e487b7160e01b600052601160045260246000fdfea2646970667358221220fd5a7a39b2d8ae51abbddce967b4dba01a22ac7652e586cb2163b99c1fbb012164736f6c63430008040033",
  "devdoc": {
    "kind": "dev",
    "methods": {},
    "version": 1
  },
  "userdoc": {
    "kind": "user",
    "methods": {},
    "version": 1
  },
  "storageLayout": {
    "storage": [
      {
        "astId": 26,
        "contract": "contracts/Staker.sol:Staker",
        "label": "balances",
        "offset": 0,
        "slot": "0",
        "type": "t_mapping(t_address,t_uint256)"
      },
      {
        "astId": 35,
        "contract": "contracts/Staker.sol:Staker",
        "label": "deadline",
        "offset": 0,
        "slot": "1",
        "type": "t_uint256"
      },
      {
        "astId": 38,
        "contract": "contracts/Staker.sol:Staker",
        "label": "exampleExternalContract",
        "offset": 0,
        "slot": "2",
        "type": "t_contract(ExampleExternalContract)12"
      }
    ],
    "types": {
      "t_address": {
        "encoding": "inplace",
        "label": "address",
        "numberOfBytes": "20"
      },
      "t_contract(ExampleExternalContract)12": {
        "encoding": "inplace",
        "label": "contract ExampleExternalContract",
        "numberOfBytes": "20"
      },
      "t_mapping(t_address,t_uint256)": {
        "encoding": "mapping",
        "key": "t_address",
        "label": "mapping(address => uint256)",
        "numberOfBytes": "32",
        "value": "t_uint256"
      },
      "t_uint256": {
        "encoding": "inplace",
        "label": "uint256",
        "numberOfBytes": "32"
      }
    }
  }
}